{
  "contractName": "VehicleManager",
  "abi": [
    {
      "constant": false,
      "inputs": [],
      "name": "stop",
      "outputs": [
        {
          "name": "",
          "type": "bool"
        }
      ],
      "payable": false,
      "stateMutability": "nonpayable",
      "type": "function"
    },
    {
      "constant": false,
      "inputs": [],
      "name": "withdraw",
      "outputs": [],
      "payable": false,
      "stateMutability": "nonpayable",
      "type": "function"
    },
    {
      "constant": true,
      "inputs": [],
      "name": "numVehicles",
      "outputs": [
        {
          "name": "",
          "type": "uint256"
        }
      ],
      "payable": false,
      "stateMutability": "view",
      "type": "function"
    },
    {
      "constant": true,
      "inputs": [
        {
          "name": "",
          "type": "uint256"
        }
      ],
      "name": "vehicleMap",
      "outputs": [
        {
          "name": "vin",
          "type": "uint256"
        },
        {
          "name": "year",
          "type": "uint256"
        },
        {
          "name": "model",
          "type": "string"
        },
        {
          "name": "make",
          "type": "string"
        },
        {
          "name": "vehicleOwner",
          "type": "address"
        },
        {
          "name": "buyer",
          "type": "address"
        },
        {
          "name": "status",
          "type": "uint8"
        },
        {
          "name": "price",
          "type": "uint256"
        }
      ],
      "payable": false,
      "stateMutability": "view",
      "type": "function"
    },
    {
      "constant": true,
      "inputs": [
        {
          "name": "",
          "type": "uint256"
        }
      ],
      "name": "vins",
      "outputs": [
        {
          "name": "",
          "type": "uint256"
        }
      ],
      "payable": false,
      "stateMutability": "view",
      "type": "function"
    },
    {
      "constant": true,
      "inputs": [],
      "name": "stopped",
      "outputs": [
        {
          "name": "",
          "type": "bool"
        }
      ],
      "payable": false,
      "stateMutability": "view",
      "type": "function"
    },
    {
      "constant": false,
      "inputs": [],
      "name": "acceptOwnership",
      "outputs": [],
      "payable": false,
      "stateMutability": "nonpayable",
      "type": "function"
    },
    {
      "constant": true,
      "inputs": [],
      "name": "owner",
      "outputs": [
        {
          "name": "",
          "type": "address"
        }
      ],
      "payable": false,
      "stateMutability": "view",
      "type": "function"
    },
    {
      "constant": false,
      "inputs": [],
      "name": "start",
      "outputs": [
        {
          "name": "",
          "type": "bool"
        }
      ],
      "payable": false,
      "stateMutability": "nonpayable",
      "type": "function"
    },
    {
      "constant": true,
      "inputs": [],
      "name": "newOwner",
      "outputs": [
        {
          "name": "",
          "type": "address"
        }
      ],
      "payable": false,
      "stateMutability": "view",
      "type": "function"
    },
    {
      "constant": false,
      "inputs": [
        {
          "name": "_newOwner",
          "type": "address"
        }
      ],
      "name": "transferOwnership",
      "outputs": [],
      "payable": false,
      "stateMutability": "nonpayable",
      "type": "function"
    },
    {
      "inputs": [],
      "payable": false,
      "stateMutability": "nonpayable",
      "type": "constructor"
    },
    {
      "payable": false,
      "stateMutability": "nonpayable",
      "type": "fallback"
    },
    {
      "anonymous": false,
      "inputs": [
        {
          "indexed": false,
          "name": "_vin",
          "type": "uint256"
        },
        {
          "indexed": false,
          "name": "_owner",
          "type": "address"
        }
      ],
      "name": "NewVehicle",
      "type": "event"
    },
    {
      "anonymous": false,
      "inputs": [
        {
          "indexed": false,
          "name": "_vin",
          "type": "uint256"
        }
      ],
      "name": "TransferVehicle",
      "type": "event"
    },
    {
      "anonymous": false,
      "inputs": [
        {
          "indexed": false,
          "name": "_vin",
          "type": "uint256"
        }
      ],
      "name": "ForSale",
      "type": "event"
    },
    {
      "anonymous": false,
      "inputs": [
        {
          "indexed": false,
          "name": "_vin",
          "type": "uint256"
        }
      ],
      "name": "Sold",
      "type": "event"
    },
    {
      "anonymous": false,
      "inputs": [
        {
          "indexed": false,
          "name": "_fee",
          "type": "uint256"
        }
      ],
      "name": "Fee",
      "type": "event"
    },
    {
      "anonymous": false,
      "inputs": [],
      "name": "Stopped",
      "type": "event"
    },
    {
      "anonymous": false,
      "inputs": [
        {
          "indexed": true,
          "name": "_from",
          "type": "address"
        },
        {
          "indexed": true,
          "name": "_to",
          "type": "address"
        }
      ],
      "name": "OwnershipTransferred",
      "type": "event"
    },
    {
      "constant": false,
      "inputs": [
        {
          "name": "_vin",
          "type": "uint256"
        },
        {
          "name": "_year",
          "type": "uint256"
        },
        {
          "name": "_model",
          "type": "string"
        },
        {
          "name": "_make",
          "type": "string"
        }
      ],
      "name": "registerVehicle",
      "outputs": [],
      "payable": false,
      "stateMutability": "nonpayable",
      "type": "function"
    },
    {
      "constant": false,
      "inputs": [
        {
          "name": "_vin",
          "type": "uint256"
        },
        {
          "name": "_price",
          "type": "uint256"
        }
      ],
      "name": "sellVehicle",
      "outputs": [],
      "payable": false,
      "stateMutability": "nonpayable",
      "type": "function"
    },
    {
      "constant": false,
      "inputs": [
        {
          "name": "vin",
          "type": "uint256"
        }
      ],
      "name": "buyVehicle",
      "outputs": [],
      "payable": true,
      "stateMutability": "payable",
      "type": "function"
    },
    {
      "constant": false,
      "inputs": [
        {
          "name": "_vin",
          "type": "uint256"
        },
        {
          "name": "_newOwner",
          "type": "address"
        }
      ],
      "name": "transferVehicle",
      "outputs": [
        {
          "name": "",
          "type": "string"
        }
      ],
      "payable": false,
      "stateMutability": "nonpayable",
      "type": "function"
    },
    {
      "constant": true,
      "inputs": [
        {
          "name": "_vin",
          "type": "uint256"
        }
      ],
      "name": "fetchVehicle",
      "outputs": [
        {
          "name": "model",
          "type": "string"
        },
        {
          "name": "make",
          "type": "string"
        },
        {
          "name": "vin",
          "type": "uint256"
        },
        {
          "name": "year",
          "type": "uint256"
        },
        {
          "name": "status",
          "type": "uint256"
        },
        {
          "name": "price",
          "type": "uint256"
        },
        {
          "name": "vehicleOwner",
          "type": "address"
        },
        {
          "name": "buyer",
          "type": "address"
        }
      ],
      "payable": false,
      "stateMutability": "view",
      "type": "function"
    },
    {
      "constant": true,
      "inputs": [
        {
          "name": "_vin",
          "type": "uint256"
        }
      ],
      "name": "getVehicleOwner",
      "outputs": [
        {
          "name": "",
          "type": "address"
        }
      ],
      "payable": false,
      "stateMutability": "view",
      "type": "function"
    },
    {
      "constant": true,
      "inputs": [
        {
          "name": "_vin",
          "type": "uint256"
        }
      ],
      "name": "getVehicleMake",
      "outputs": [
        {
          "name": "",
          "type": "string"
        }
      ],
      "payable": false,
      "stateMutability": "view",
      "type": "function"
    },
    {
      "constant": true,
      "inputs": [
        {
          "name": "_vin",
          "type": "uint256"
        }
      ],
      "name": "getVehicleModel",
      "outputs": [
        {
          "name": "",
          "type": "string"
        }
      ],
      "payable": false,
      "stateMutability": "view",
      "type": "function"
    },
    {
      "constant": true,
      "inputs": [
        {
          "name": "_vin",
          "type": "uint256"
        }
      ],
      "name": "getVehicleYear",
      "outputs": [
        {
          "name": "",
          "type": "uint256"
        }
      ],
      "payable": false,
      "stateMutability": "view",
      "type": "function"
    },
    {
      "constant": true,
      "inputs": [],
      "name": "getVins",
      "outputs": [
        {
          "name": "",
          "type": "uint256[]"
        }
      ],
      "payable": false,
      "stateMutability": "view",
      "type": "function"
    }
  ],
  "bytecode": "0x60806040526000600160146101000a81548160ff02191690831515021790555034801561002b57600080fd5b50336000806101000a81548173ffffffffffffffffffffffffffffffffffffffff021916908373ffffffffffffffffffffffffffffffffffffffff16021790555060006004819055506121b7806100836000396000f30060806040526004361061011d576000357c0100000000000000000000000000000000000000000000000000000000900463ffffffff16806307da68f51461012f57806336ce09201461015e5780633ccfd60b1461017e5780633e5d9c95146101955780635c7410c6146101c05780636251bdfa14610362578063731941c81461042557806375c0ad2b1461046657806375f12b211461052c57806379ba50971461055b5780637e303eb41461057257806386375db1146105a95780638da5cb5b146106155780639f0ee2af1461066c578063be9a6555146106ad578063c20ddef3146106dc578063d134ed5b14610870578063d4ee1d9014610916578063e185dc901461096d578063f2fde38b146109da578063fd80c82014610a1d575b34801561012957600080fd5b50600080fd5b34801561013b57600080fd5b50610144610ac3565b604051808215151515815260200191505060405180910390f35b61017c60048036038101908080359060200190929190505050610bcc565b005b34801561018a57600080fd5b50610193610f32565b005b3480156101a157600080fd5b506101aa610fce565b6040518082815260200191505060405180910390f35b3480156101cc57600080fd5b506101eb60048036038101908080359060200190929190505050610fd4565b6040518089815260200188815260200180602001806020018773ffffffffffffffffffffffffffffffffffffffff1673ffffffffffffffffffffffffffffffffffffffff1681526020018673ffffffffffffffffffffffffffffffffffffffff1673ffffffffffffffffffffffffffffffffffffffff16815260200185600181111561027357fe5b60ff168152602001848152602001838103835289818151815260200191508051906020019080838360005b838110156102b957808201518184015260208101905061029e565b50505050905090810190601f1680156102e65780820380516001836020036101000a031916815260200191505b50838103825288818151815260200191508051906020019080838360005b8381101561031f578082015181840152602081019050610304565b50505050905090810190601f16801561034c5780820380516001836020036101000a031916815260200191505b509a505050505050505050505060405180910390f35b34801561036e57600080fd5b506104236004803603810190808035906020019092919080359060200190929190803590602001908201803590602001908080601f0160208091040260200160405190810160405280939291908181526020018383808284378201915050505050509192919290803590602001908201803590602001908080601f0160208091040260200160405190810160405280939291908181526020018383808284378201915050505050509192919290505050611199565b005b34801561043157600080fd5b50610450600480360381019080803590602001909291905050506113e2565b6040518082815260200191505060405180910390f35b34801561047257600080fd5b506104b160048036038101908080359060200190929190803573ffffffffffffffffffffffffffffffffffffffff169060200190929190505050611405565b6040518080602001828103825283818151815260200191508051906020019080838360005b838110156104f15780820151818401526020810190506104d6565b50505050905090810190601f16801561051e5780820380516001836020036101000a031916815260200191505b509250505060405180910390f35b34801561053857600080fd5b506105416115a9565b604051808215151515815260200191505060405180910390f35b34801561056757600080fd5b506105706115bc565b005b34801561057e57600080fd5b506105a7600480360381019080803590602001909291908035906020019092919050505061175b565b005b3480156105b557600080fd5b506105be6118fb565b6040518080602001828103825283818151815260200191508051906020019060200280838360005b838110156106015780820151818401526020810190506105e6565b505050509050019250505060405180910390f35b34801561062157600080fd5b5061062a611953565b604051808273ffffffffffffffffffffffffffffffffffffffff1673ffffffffffffffffffffffffffffffffffffffff16815260200191505060405180910390f35b34801561067857600080fd5b5061069760048036038101908080359060200190929190505050611978565b6040518082815260200191505060405180910390f35b3480156106b957600080fd5b506106c261199d565b604051808215151515815260200191505060405180910390f35b3480156106e857600080fd5b5061070760048036038101908080359060200190929190505050611aa7565b6040518080602001806020018981526020018881526020018781526020018681526020018573ffffffffffffffffffffffffffffffffffffffff1673ffffffffffffffffffffffffffffffffffffffff1681526020018473ffffffffffffffffffffffffffffffffffffffff1673ffffffffffffffffffffffffffffffffffffffff16815260200183810383528b818151815260200191508051906020019080838360005b838110156107c75780820151818401526020810190506107ac565b50505050905090810190601f1680156107f45780820380516001836020036101000a031916815260200191505b5083810382528a818151815260200191508051906020019080838360005b8381101561082d578082015181840152602081019050610812565b50505050905090810190601f16801561085a5780820380516001836020036101000a031916815260200191505b509a505050505050505050505060405180910390f35b34801561087c57600080fd5b5061089b60048036038101908080359060200190929190505050611d26565b6040518080602001828103825283818151815260200191508051906020019080838360005b838110156108db5780820151818401526020810190506108c0565b50505050905090810190601f1680156109085780820380516001836020036101000a031916815260200191505b509250505060405180910390f35b34801561092257600080fd5b5061092b611de4565b604051808273ffffffffffffffffffffffffffffffffffffffff1673ffffffffffffffffffffffffffffffffffffffff16815260200191505060405180910390f35b34801561097957600080fd5b5061099860048036038101908080359060200190929190505050611e0a565b604051808273ffffffffffffffffffffffffffffffffffffffff1673ffffffffffffffffffffffffffffffffffffffff16815260200191505060405180910390f35b3480156109e657600080fd5b50610a1b600480360381019080803573ffffffffffffffffffffffffffffffffffffffff169060200190929190505050611e4f565b005b348015610a2957600080fd5b50610a4860048036038101908080359060200190929190505050611fdb565b6040518080602001828103825283818151815260200191508051906020019080838360005b83811015610a88578082015181840152602081019050610a6d565b50505050905090810190601f168015610ab55780820380516001836020036101000a031916815260200191505b509250505060405180910390f35b60008060009054906101000a900473ffffffffffffffffffffffffffffffffffffffff1673ffffffffffffffffffffffffffffffffffffffff163373ffffffffffffffffffffffffffffffffffffffff16141515610baf576040517f08c379a00000000000000000000000000000000000000000000000000000000081526004018080602001828103825260218152602001807f4f6e6c79206f776e65722063616e2063616c6c20746869732066756e6374696f81526020017f6e0000000000000000000000000000000000000000000000000000000000000081525060400191505060405180910390fd5b60018060146101000a81548160ff02191690831515021790555090565b600080600160149054906101000a900460ff16151515610beb57600080fd5b82600180811115610bf857fe5b6003600083815260200190815260200160002060050160149054906101000a900460ff166001811115610c2757fe5b141515610c3357600080fd5b6003600085815260200190815260200160002060060154803410151515610c5957600080fd5b846000807f92f64ca637d023f354075a4be751b169c1a8a9ccb6d33cdd0cb3520543995727886040518082815260200191505060405180910390a16000600360008a815260200190815260200160002060050160146101000a81548160ff02191690836001811115610cc757fe5b021790555033600360008a815260200190815260200160002060050160006101000a81548173ffffffffffffffffffffffffffffffffffffffff021916908373ffffffffffffffffffffffffffffffffffffffff1602179055506003600089815260200190815260200160002060040160009054906101000a900473ffffffffffffffffffffffffffffffffffffffff16965033600360008a815260200190815260200160002060040160006101000a81548173ffffffffffffffffffffffffffffffffffffffff021916908373ffffffffffffffffffffffffffffffffffffffff1602179055506064610ddb6001600360008c81526020019081526020016000206006015461209990919063ffffffff16565b811515610de457fe5b0495507f557809284da7314475b1582804ae28e5f1349efc1fe970ea25d50fce75eb4f43866040518082815260200191505060405180910390a18673ffffffffffffffffffffffffffffffffffffffff166108fc610e6188600360008d8152602001908152602001600020600601546120ca90919063ffffffff16565b9081150290604051600060405180830381858888f19350505050158015610e8c573d6000803e3d6000fd5b506003600084815260200190815260200160002060060154915081340390506003600084815260200190815260200160002060050160009054906101000a900473ffffffffffffffffffffffffffffffffffffffff1673ffffffffffffffffffffffffffffffffffffffff166108fc829081150290604051600060405180830381858888f19350505050158015610f27573d6000803e3d6000fd5b505050505050505050565b600160149054906101000a900460ff161515610f4d57600080fd5b6000809054906101000a900473ffffffffffffffffffffffffffffffffffffffff1673ffffffffffffffffffffffffffffffffffffffff166108fc3073ffffffffffffffffffffffffffffffffffffffff16319081150290604051600060405180830381858888f19350505050158015610fcb573d6000803e3d6000fd5b50565b60045481565b6003602052806000526040600020600091509050806000015490806001015490806002018054600181600116156101000203166002900480601f01602080910402602001604051908101604052809291908181526020018280546001816001161561010002031660029004801561108c5780601f106110615761010080835404028352916020019161108c565b820191906000526020600020905b81548152906001019060200180831161106f57829003601f168201915b505050505090806003018054600181600116156101000203166002900480601f01602080910402602001604051908101604052809291908181526020018280546001816001161561010002031660029004801561112a5780601f106110ff5761010080835404028352916020019161112a565b820191906000526020600020905b81548152906001019060200180831161110d57829003601f168201915b5050505050908060040160009054906101000a900473ffffffffffffffffffffffffffffffffffffffff16908060050160009054906101000a900473ffffffffffffffffffffffffffffffffffffffff16908060050160149054906101000a900460ff16908060060154905088565b7f5b23c1e218a5a8017d13d9fbe751f9bc180633aafa52562459892183a4e67ab88433604051808381526020018273ffffffffffffffffffffffffffffffffffffffff1673ffffffffffffffffffffffffffffffffffffffff1681526020019250505060405180910390a16002849080600181540180825580915050906001820390600052602060002001600090919290919091505550610100604051908101604052808581526020018481526020018381526020018281526020013373ffffffffffffffffffffffffffffffffffffffff168152602001600073ffffffffffffffffffffffffffffffffffffffff1681526020016000600181111561129b57fe5b8152602001600081525060036000868152602001908152602001600020600082015181600001556020820151816001015560408201518160020190805190602001906112e89291906120e6565b5060608201518160030190805190602001906113059291906120e6565b5060808201518160040160006101000a81548173ffffffffffffffffffffffffffffffffffffffff021916908373ffffffffffffffffffffffffffffffffffffffff16021790555060a08201518160050160006101000a81548173ffffffffffffffffffffffffffffffffffffffff021916908373ffffffffffffffffffffffffffffffffffffffff16021790555060c08201518160050160146101000a81548160ff021916908360018111156113b857fe5b021790555060e0820151816006015590505060046000815480929190600101919050555050505050565b6002818154811015156113f157fe5b906000526020600020016000915090505481565b60606003600084815260200190815260200160002060040160009054906101000a900473ffffffffffffffffffffffffffffffffffffffff168073ffffffffffffffffffffffffffffffffffffffff163373ffffffffffffffffffffffffffffffffffffffff1614151561147857600080fd5b836000600181111561148657fe5b6003600083815260200190815260200160002060050160149054906101000a900460ff1660018111156114b557fe5b1415156114c157600080fd5b600160149054906101000a900460ff161515156114dd57600080fd5b7f98a6da6a6b1b6445e2d99477efe298a4d7042431b3836e820312e45cb8f6fc0e856040518082815260200191505060405180910390a1836003600087815260200190815260200160002060040160006101000a81548173ffffffffffffffffffffffffffffffffffffffff021916908373ffffffffffffffffffffffffffffffffffffffff16021790555060006003600087815260200190815260200160002060050160146101000a81548160ff0219169083600181111561159c57fe5b0217905550505092915050565b600160149054906101000a900460ff1681565b600160009054906101000a900473ffffffffffffffffffffffffffffffffffffffff1673ffffffffffffffffffffffffffffffffffffffff163373ffffffffffffffffffffffffffffffffffffffff1614151561161857600080fd5b600160009054906101000a900473ffffffffffffffffffffffffffffffffffffffff1673ffffffffffffffffffffffffffffffffffffffff166000809054906101000a900473ffffffffffffffffffffffffffffffffffffffff1673ffffffffffffffffffffffffffffffffffffffff167f8be0079c531659141344cd1fd0a4f28419497f9722a3daafe3b4186f6b6457e060405160405180910390a3600160009054906101000a900473ffffffffffffffffffffffffffffffffffffffff166000806101000a81548173ffffffffffffffffffffffffffffffffffffffff021916908373ffffffffffffffffffffffffffffffffffffffff1602179055506000600160006101000a81548173ffffffffffffffffffffffffffffffffffffffff021916908373ffffffffffffffffffffffffffffffffffffffff160217905550565b6003600083815260200190815260200160002060040160009054906101000a900473ffffffffffffffffffffffffffffffffffffffff168073ffffffffffffffffffffffffffffffffffffffff163373ffffffffffffffffffffffffffffffffffffffff161415156117cc57600080fd5b82600060018111156117da57fe5b6003600083815260200190815260200160002060050160149054906101000a900460ff16600181111561180957fe5b14151561181557600080fd5b7fa96ae0fc3224ebd79eebfe54bd130cc9cb94416cddd1f2386115e00b72532468846040518082815260200191505060405180910390a160016003600086815260200190815260200160002060050160146101000a81548160ff0219169083600181111561187f57fe5b021790555082600360008681526020019081526020016000206006018190555060006003600086815260200190815260200160002060050160006101000a81548173ffffffffffffffffffffffffffffffffffffffff021916908373ffffffffffffffffffffffffffffffffffffffff16021790555050505050565b6060600280548060200260200160405190810160405280929190818152602001828054801561194957602002820191906000526020600020905b815481526020019060010190808311611935575b5050505050905090565b6000809054906101000a900473ffffffffffffffffffffffffffffffffffffffff1681565b6000806003600084815260200190815260200160002060010154905080915050919050565b60008060009054906101000a900473ffffffffffffffffffffffffffffffffffffffff1673ffffffffffffffffffffffffffffffffffffffff163373ffffffffffffffffffffffffffffffffffffffff16141515611a89576040517f08c379a00000000000000000000000000000000000000000000000000000000081526004018080602001828103825260218152602001807f4f6e6c79206f776e65722063616e2063616c6c20746869732066756e6374696f81526020017f6e0000000000000000000000000000000000000000000000000000000000000081525060400191505060405180910390fd5b6000600160146101000a81548160ff02191690831515021790555090565b606080600080600080600080600360008a81526020019081526020016000206002018054600181600116156101000203166002900480601f016020809104026020016040519081016040528092919081815260200182805460018160011615610100020316600290048015611b5d5780601f10611b3257610100808354040283529160200191611b5d565b820191906000526020600020905b815481529060010190602001808311611b4057829003601f168201915b50505050509750600360008a81526020019081526020016000206003018054600181600116156101000203166002900480601f016020809104026020016040519081016040528092919081815260200182805460018160011615610100020316600290048015611c0e5780601f10611be357610100808354040283529160200191611c0e565b820191906000526020600020905b815481529060010190602001808311611bf157829003601f168201915b50505050509650600360008a8152602001908152602001600020600001549550600360008a8152602001908152602001600020600101549450600360008a8152602001908152602001600020600601549250600360008a815260200190815260200160002060050160149054906101000a900460ff166001811115611c8f57fe5b9350600360008a815260200190815260200160002060040160009054906101000a900473ffffffffffffffffffffffffffffffffffffffff169150600360008a815260200190815260200160002060050160009054906101000a900473ffffffffffffffffffffffffffffffffffffffff169050878787878787878797509750975097509750975097509750919395975091939597565b60606000600360008481526020019081526020016000206003019050808054600181600116156101000203166002900480601f016020809104026020016040519081016040528092919081815260200182805460018160011615610100020316600290048015611dd75780601f10611dac57610100808354040283529160200191611dd7565b820191906000526020600020905b815481529060010190602001808311611dba57829003601f168201915b5050505050915050919050565b600160009054906101000a900473ffffffffffffffffffffffffffffffffffffffff1681565b6000806003600084815260200190815260200160002060040160009054906101000a900473ffffffffffffffffffffffffffffffffffffffff16905080915050919050565b6000809054906101000a900473ffffffffffffffffffffffffffffffffffffffff1673ffffffffffffffffffffffffffffffffffffffff163373ffffffffffffffffffffffffffffffffffffffff16141515611f39576040517f08c379a00000000000000000000000000000000000000000000000000000000081526004018080602001828103825260218152602001807f4f6e6c79206f776e65722063616e2063616c6c20746869732066756e6374696f81526020017f6e0000000000000000000000000000000000000000000000000000000000000081525060400191505060405180910390fd5b600073ffffffffffffffffffffffffffffffffffffffff16600160009054906101000a900473ffffffffffffffffffffffffffffffffffffffff1673ffffffffffffffffffffffffffffffffffffffff1614151515611f9757600080fd5b80600160006101000a81548173ffffffffffffffffffffffffffffffffffffffff021916908373ffffffffffffffffffffffffffffffffffffffff16021790555050565b60606000600360008481526020019081526020016000206002019050808054600181600116156101000203166002900480601f01602080910402602001604051908101604052809291908181526020018280546001816001161561010002031660029004801561208c5780601f106120615761010080835404028352916020019161208c565b820191906000526020600020905b81548152906001019060200180831161206f57829003601f168201915b5050505050915050919050565b6000818302905060008314806120b957508183828115156120b657fe5b04145b15156120c457600080fd5b92915050565b60008282111515156120db57600080fd5b818303905092915050565b828054600181600116156101000203166002900490600052602060002090601f016020900481019282601f1061212757805160ff1916838001178555612155565b82800160010185558215612155579182015b82811115612154578251825591602001919060010190612139565b5b5090506121629190612166565b5090565b61218891905b8082111561218457600081600090555060010161216c565b5090565b905600a165627a7a72305820c26ed11da3df8e7b7c47d04be32e737e3a55754b75f377fce67eaa25f786285a0029",
  "source": "\npragma solidity ^0.4.23;\n//\n// ----------------------------------------------------------------------------\n// Owned contract\n// ----------------------------------------------------------------------------\ncontract Owned {\n    address public owner;\n    address public newOwner;\n\n    event OwnershipTransferred(address indexed _from, address indexed _to);\n\n    constructor() public {\n        owner = msg.sender;\n    }\n\n    modifier onlyOwner {\n        require (msg.sender == owner, \"Only owner can call this function\");\n        _;\n    }\n\n    function transferOwnership(address _newOwner) public onlyOwner {\n        require(newOwner != address(0));\n        newOwner = _newOwner;\n    }\n\n    function acceptOwnership() public {\n        require(msg.sender == newOwner);\n        emit OwnershipTransferred(owner, newOwner);\n        owner = newOwner;\n        newOwner = address(0);\n    }\n}\n\n//\n// ----------------------------------------------------------------------------\n// Circuit breaker contract\n// ----------------------------------------------------------------------------\n\ncontract CircuitBreaker is Owned {\n\n    bool public stopped = false;\n\n    event Stopped();\n\n    modifier stopInEmergency {require(!stopped);\n        _;}\n\n    modifier onlyInEmergency {require(stopped);\n        _;}\n\n    function withdraw() onlyInEmergency public {\n        owner.transfer(address(this).balance);\n    }\n\n    function stop() onlyOwner public returns (bool) {\n        stopped = true;\n    }\n\n    function start() onlyOwner public returns (bool) {\n        stopped = false;\n    }\n}\n\n// ----------------------------------------------------------------------------\n// Safe maths\n// ----------------------------------------------------------------------------\nlibrary SafeMath {\n    function add(uint a, uint b) internal pure returns (uint c) {\n        c = a + b;\n        require(c >= a);\n    }\n    function sub(uint a, uint b) internal pure returns (uint c) {\n        require(b <= a);\n        c = a - b;\n    }\n    function mul(uint a, uint b) internal pure returns (uint c) {\n        c = a * b;\n        require(a == 0 || c / a == b);\n    }\n    function div(uint a, uint b) internal pure returns (uint c) {\n        require(b > 0);\n        c = a / b;\n    }\n}\n\n//\n// ----------------------------------------------------------------------------\n// Vehicle store contract\n// ----------------------------------------------------------------------------\n\ncontract VehicleManager is Owned, CircuitBreaker {\n    using SafeMath for uint;\n    uint[] public vins;\n    mapping(uint => Vehicle) public vehicleMap;\n    uint public numVehicles;\n    uint constant SALE_FEE_PERCENT = 1;\n\n    constructor() public {\n        numVehicles = 0;\n    }\n\n    event NewVehicle(uint _vin, address _owner);\n    event TransferVehicle(uint _vin);\n    event ForSale(uint _vin);\n    event Sold(uint _vin);\n    event Fee(uint _fee);\n\n    enum Status {RoadWorthy, ForSale}\n\n    struct Vehicle {\n        uint vin;\n        uint year;\n        string model;\n        string make;\n        address vehicleOwner;\n        address buyer;\n        Status status;\n        uint price;\n    }\n\n    modifier paidEnough(uint _price) { require(msg.value >= _price); _;}\n\n    modifier checkValue(uint _vin) {\n        //refund them after pay for item (why it is before, _ checks for logic before func)\n        _;\n        uint _price = vehicleMap[_vin].price;\n        uint amountToRefund = msg.value - _price;\n        vehicleMap[_vin].buyer.transfer(amountToRefund);\n    }\n\n    // Check car is set as for Sale by owner\n    modifier forSale(uint _vin) {\n        require (vehicleMap[_vin].status == Status.ForSale); _;\n    }\n\n    modifier roadWorthy(uint _vin) {\n        require (vehicleMap[_vin].status == Status.RoadWorthy); _;\n    }\n\n    modifier carOwnerOnly(address _owner) {\n        require (msg.sender == _owner);\n        _;\n    }\n\n    function registerVehicle(uint _vin, uint _year, string _model, string _make) public {\n        emit NewVehicle(_vin, msg.sender);\n        vins.push(_vin);\n        vehicleMap[_vin] = Vehicle({\n        vin: _vin, year: _year, model: _model, make: _make, vehicleOwner: msg.sender, buyer: 0, status: Status.RoadWorthy, price: 0\n        });\n        numVehicles++;\n    }\n\n    function sellVehicle(uint _vin, uint _price) carOwnerOnly(vehicleMap[_vin].vehicleOwner) roadWorthy(_vin) public {\n        emit ForSale(_vin);\n        vehicleMap[_vin].status = Status.ForSale;\n        vehicleMap[_vin].price = _price;\n        vehicleMap[_vin].buyer = 0;\n    }\n\n    function buyVehicle(uint vin) public stopInEmergency forSale(vin) paidEnough(vehicleMap[vin].price) checkValue(vin) payable {\n        emit Sold(vin);\n        vehicleMap[vin].status = Status.RoadWorthy;\n        vehicleMap[vin].buyer = msg.sender;\n        address owner = vehicleMap[vin].vehicleOwner;\n\n        // Transfer ownership across\n        vehicleMap[vin].vehicleOwner = msg.sender;\n\n        // send ether to \"owner\"\n        // Take a 1% fee out of the price\n        uint fee = (vehicleMap[vin].price).mul(SALE_FEE_PERCENT) / 100;\n\n        emit Fee(fee);\n\n        owner.transfer((vehicleMap[vin].price).sub(fee));\n    }\n\n    function transferVehicle(uint _vin, address _newOwner) carOwnerOnly(vehicleMap[_vin].vehicleOwner) roadWorthy(_vin) stopInEmergency public returns (string) {\n        emit TransferVehicle(_vin);\n        vehicleMap[_vin].vehicleOwner = _newOwner;\n        vehicleMap[_vin].status = Status.RoadWorthy;\n    }\n\n    /* Fetch vehicle info by VIN */\n    function fetchVehicle(uint _vin) public view returns (string model, string make, uint vin, uint year, uint status, uint price, address vehicleOwner, address buyer) {\n        model = vehicleMap[_vin].model;\n        make = vehicleMap[_vin].make;\n        vin = vehicleMap[_vin].vin;\n        year = vehicleMap[_vin].year;\n        price = vehicleMap[_vin].price;\n        status = uint(vehicleMap[_vin].status);\n        vehicleOwner = vehicleMap[_vin].vehicleOwner;\n        buyer = vehicleMap[_vin].buyer;\n        return (model, make, vin, year, status, price, vehicleOwner, buyer);\n    }\n\n    function getVehicleOwner(uint _vin) public constant returns (address) {\n        address owner = vehicleMap[_vin].vehicleOwner;\n        return owner;\n    }\n\n    function getVehicleMake(uint _vin) public constant returns (string) {\n        string storage vmake = vehicleMap[_vin].make;\n        return vmake;\n    }\n\n    function getVehicleModel(uint _vin) public constant returns (string) {\n        string storage vmodel = vehicleMap[_vin].model;\n        return vmodel;\n    }\n\n    function getVehicleYear(uint _vin) public constant returns (uint) {\n        uint vyear = vehicleMap[_vin].year;\n        return vyear;\n    }\n\n    function getVins() public view returns (uint[]) {\n        return vins;\n    }\n\n    // Fallback function - Called if other functions don't match call or\n    // sent ether without data\n    // Typically, called when invalid data is sent\n    // Added so ether sent to this contract is reverted if the contract fails\n    function() public {\n        revert();\n    }\n}",
  "sourcePath": "/Users/jacksonc/workspace/consensys/Skysensys/Project/contracts/VehicleManager.sol",
  "compiler": {
    "name": "solc",
    "version": "0.4.24+commit.e67f0147.Emscripten.clang"
  },
  "schemaVersion": "2.0.1",
  "updatedAt": "2018-08-28T06:10:40.108Z"
}